:03000000020D15D9
:0C0D1500787FE4F6D8FD75814A020D5C81
:0207C8008F3868
:1007CA00E4F539F539E539C395384003020946C2DB
:1007DA00A07F017E00121321D2A07F017E00121396
:1007EA0021C2A07F017E00121321D2A07F017E00C8
:1007FA00121321C2A07F017E00121321D2A07F0111
:10080A007E00121321C2A07F017E00121321D2A002
:10081A007F017E00121321C2A07F017E00121321E4
:10082A00D2A07F017E00121321C2A07F017E001296
:10083A001321D2A07F017E00121321C2A07F017E64
:10084A0000121321D2A07F017E00121321C2A07FC1
:10085A00017E00121321D2A07F017E00121321C251
:10086A00A07F017E00121321D2A07F017E00121305
:10087A0021C2A07F017E00121321D2A07F017E0037
:10088A00121321C2A07F017E00121321D2A07F0180
:10089A007E00121321C2A07F017E00121321D2A072
:1008AA007F017E00121321C2A07F017E0012132154
:1008BA00D2A07F017E00121321C2A07F017E001206
:1008CA001321D2A07F017E00121321C2A07F017ED4
:1008DA0000121321D2A07F017E00121321C2A07F31
:1008EA00017E00121321D2A07F017E00121321C2C1
:1008FA00A07F017E00121321D2A07F017E00121375
:10090A0021C2A07F017E00121321D2A07F017E00A6
:10091A00121321C2A07F017E00121321D2A07F01EF
:10092A007E00121321C2A07F017E00121321D2A0E1
:0C093A007F017E0012132105390207CF57
:01094600228E
:0A139700EF1F70011E144E70F722C4
:10132100AD07AC06ED1DAE0470011C4E60097F7D5A
:081331007E0012139780ED22EB
:10094700202020416464202046696E67657220205C
:1009570000202020204944206973202020202020C7
:10096700200020506C65617365202046696E6765BD
:10097700722000202020202020202020202020203E
:10098700202020005375636365737366756C20457B
:100997006E747279002053656172636820537563C2
:1009A7006365737320002053656172636820204676
:1009B70061696C65642000202020456D7074792082
:1009C700416C6C2020202000202020596573206F67
:1009D70072204E6F203F202000202020456D70742C
:1009E70079696E67202020202000202020416C6C30
:1009F7002020456D707479202020004C6F61646958
:100A07006E6700446F636B696E672020537563637D
:100A1700657373004E4F5420434F4E4E4543544524
:100A270044202020000100071300000000001BEFF6
:100A370001FFFFFFFF0100030100050100031D0087
:100A4700210100080401000003E700F80100080481
:100A57000100000013002101000402010008010049
:100A670004020200090100030500090100030D004B
:070A77001100000000000067
:0F118E0002080000090A0100060601000B001903
:10113C00E4F53BF53C7436253CF582740A353BF5F9
:10114C0083E493FF1213A1053CE53C7002053BC3FD
:0A115C009406E53B6480948040DBBC
:011166002266
:10108000E4F534F53512113CE4F534F535742C25CE
:1010900035F582740A3534F583E493FF1213A10504
:1010A00035E53570020534C3940AE53464809480D4
:0210B00040DB23
:0110B200221B
:0212D3008F3852
:1012D500E4F539E539C39538500E1213A974132571
:0812E50039F8A607053980EB7A
:0112ED0022DE
:1011FA0012113CE4F538C3E53894067480948050A3
:0F120A000EE538900A3C93FF1213A1053880E7D8
:0112190022B2
:10121A0012113CE4F538C3E5389407748094805081
:0F122A000EE538900A5E93FF1213A1053880E796
:011239002292
:10100E00E4F536C3E536940674809480500EE536CA
:10101E00900A3693FF1213A1053680E7E4F536C326
:10102E00E536940774809480500EE536900A6593E9
:08103E00FF1213A1053680E743
:011046002287
:10123A0012113CE4F538C3E538940B74809480505D
:0F124A000EE538900A4893FF1213A1053880E78C
:011259002272
:10125A0012113CE4F536C3E5369406748094805046
:0F126A000EE536900A6C93FF1213A1053680E74C
:011279002252
:10104700E4F534C3E534940674809480500EE53497
:10105700900A3693FF1213A1053480E7E4F534C3F1
:10106700E534940674809480500EE534900A7293A8
:08107700FF1213A1053480E70C
:01107F00224E
:020DA100AB079E
:100DA300E4F539F538F537F536EEF50FEBF510E4E4
:100DB300F53AC3E53A9407748094805023740A2566
:100DC3003AF8E6FFE4FCFDFEE5392FF539EE353858
:100DD300F538ED3537F537EC3536F536053A80D24B
:100DE300E4FFE538FEE4FDFC78081207B58F11E552
:100DF30039FF8F1212113CE4F53AC3E53A940974B2
:100E0300809480500E740A253AF8E6FF1213A10568
:030E13003A80E73B
:010E160022B9
:1004160078337C007D007BFF7A0A79787E007F0343
:1004260012070D7F011212F77F021211D87508000C
:100436008F097BFF7A097947E4F53C753D107F808B
:1004460012110F7BFF7A097958E4F53C753D107F50
:10045600C012110F2095083095FD7F010212F7207A
:10046600901C3090FDE509B4E80CE508B40307E4F8
:10047600F508F50980080509E509700205087FCA2F
:100486001212F7AE08AF097C007D64120760EF24F4
:1004960030FF12134FAE08AF097C007D641207606F
:1004A6007E007F0ACFCDCFCECCCE120760EF2430B0
:1004B600FF12134FAE08AF097C007D641207607E01
:1004C600007F0ACFCDCFCECCCE120760ED2430FF11
:1004D60012134F3094030204383094FD7BFF7A09DF
:1004E6007969E4F53C753D107F8012110F7BFF7A28
:1004F60009797AE4F53C753D107FC012110F2095FD
:10050600030204382095053095FD80601211FA7FAC
:100516000C1212D3AF1CEF70E57F64FE121321128A
:10052600121A7F0C1212D37BFF7A09798BE4F53C01
:10053600753D107F8012110F7F011207C87FE87E7C
:10054600031213217BFF7A097969E4F53C753D10A6
:100556007F8012110F7BFF7A09797AE4F53C753DAD
:10056600107FC012110F20950B3095FD7F011212DE
:10057600F70204381211FA7F0C1212D3AF1CEF7077
:10058600E57FC8FE1213217BFF7A09798BE4F53CDF
:10059600753D107F8012110F7BFF7A097958E4F5BB
:1005A6003C753D107FC012110F7FCA1212F7AE08BC
:1005B600AF097C007D64120760EF2430FF12134FF1
:1005C600AE08AF097C007D641207607E007F0ACF0B
:1005D600CDCFCECCCE120760EF2430FF12134FAE34
:1005E60008AF097C007D641207607E007F0ACFCDCC
:1005F600CFCECCCE120760ED2430FF12134F12106F
:100606000E7F0C1212D312125A7F0C1212D3AF099C
:10061600AE08120DA17F0C1212D37F011207C87FFC
:10062600E87E031213210509E50970020508FD7F1E
:070636000212130802043850
:100A7E00E4F533F53478357C00FD7BFF7A0A797B1B
:100A8E00FE7F0312070D7BFF7A097969E4F53C7549
:100A9E003D107F8012110F7BFF7A09797AE4F53CC5
:100AAE00753D107FC012110F1211FA7F0C1212D366
:100ABE00AF1CEF6003020BA77F64FE12132112120C
:100ACE001A7F0C1212D312123A7F101212D3AF1CCD
:100ADE00EF7BFF6003020B827A09799CF53C753D32
:100AEE00107F8012110F7BFF7A097958E4F53C755F
:100AFE003D107FC012110F7F011207C8AF1DEFFE10
:100B0E00AD1E7C00E42DF534EC3EF5337FCA121297
:100B1E00F7AE33AF347C007D64120760EF2430FFF4
:100B2E0012134FAE33AF347C007D641207607E002B
:100B3E007F0ACFCDCFCECCCE120760EF2430FF127E
:100B4E00134FAE33AF347C007D641207607E007F9E
:100B5E000ACFCDCFCECCCE120760ED2430FF1213CC
:100B6E004FAD347F011213087FD07E07121321126E
:100B7E00138B80257A0979ADE4F53C753D107F80A5
:100B8E0012110F7BFF7A09797AE4F53C753D107FDF
:0F0B9E00C012110F7F031207C8309503020A948B
:010BAD002225
:100BAE00E4F5337BFF7A0979BEF53C753D107F8005
:100BBE0012110F7BFF7A0979CFE4F53C753D107F5A
:100BCE00C012110F309403020C5D3094FD7BFF7A3E
:100BDE000979E0E4F53C753D107F8012110F7BFF23
:100BEE007A09797AE4F53C753D107FC012110F7FBA
:100BFE002C7E011213217FC01212F7E4F533C3E5E8
:100C0E003394107480948050107F2A12134F7F6497
:100C1E007E00121321053380E51210477F0C12124D
:100C2E00D37F011212F77BFF7A0979F1E4F53C7557
:100C3E003D107F8012110F7FE87E03121321E4F521
:100C4E0008F509AD097F021213087F030207C830A9
:050C5E009503020BD21A
:010C6300226E
:100E8700E4F533751C017BFF7A0A7902F53C753D61
:100E9700077FC012110FE4F533C3E533940874805C
:100EA700948050107F2A12134F7FC87E001213219F
:100EB700053380E51210807F0C1212D3AF1CEF7B35
:100EC700FF70067A0A790A80057A0A791BE4F53CED
:0F0ED700753D107FC012110F7FE87E03121321AB
:010EE60022E9
:0511B4001211B9D2A1E7
:1011B9007F01EFD394007480948040127E02EED3B5
:0E11C90094007480948040031E80F31F80E425
:0111D70022F5
:0F136000D2A21211B4C2A21211B9C2A10211B9C4
:0F136F00C2A11211B9C2A21211B4D2A20211B9B5
:020F4400AD07F7
:100F4600E4FBFAEBC3940874809480501AEDC41342
:100F56001313540124FF92A2ED25E0FD1211B4C231
:100F6600A11211B90B80DCD2A21211B9D2A130A202
:100F7600130AEAD394C87480948040F2C2A1121175
:0B0F8600B97F0022C2A11211B97F0147
:010F9100223D
:1010B300E4FDFCD2A21211B9EDC3940874809480AC
:1010C300501AD2A11211B9EC25E0FCA2A2E43342DA
:0E10D300041211B9C2A11211B90D80DCAF04D4
:0110E10022EC
:10130800AC05A9071213607FA0120F44AF01120F9A
:0913180044AF04120F4402136FEC
:0211D800AC0762
:1011DA001213607FA0120F44AF04120F441213605F
:0F11EA007FA1120F441210B3AD0712136FAF05A0
:0111F90022D3
:0C138B00C2B77F707E17121321D2B72268
:0D137E00D290D291D292D293D294D29522E5
:06119D00014900014A00B7
:0F12B600C2A67F0A7E001212C5D2A57F0A7E0053
:0E12C500EF1FAC0670011E4C60030080F32288
:10127A00EF1FAA0670011E4A6013E4FCFDC3ED9439
:0D128A0058EC940250EA0DBD00010C80F0FC
:011297002234
:0912EE007F057E0012127A7F38A0
:1012F700AD07C2A5C2A71212B68D801212C1C2A530
:0113070022C3
:10134F00AD07C2A5D2A71212B68D801212C1C2A5C7
:01135F00226B
:031298001212F738
:10129B007580FFC2A5C2A7D2A61212B8AD801212DA
:0A12AB00C1C2A5ED5480648060E923
:0112B5002216
:1010E2007F0F1212F01212EE1212EE12129B7F38C2
:1010F2001212987F081212987F011212F712129B95
:0D1102007F061212F712129B7F0C0212F7EB
:02110F008F3817
:1011110012129BAF381212F7E4F53EE53EC3953D3E
:10112100501812129BE53E253CF582E433F58312FB
:0A1131000733FF12134F053E80E163
:01113B002291
:100C640020205375636565646564205E5F5E2020A3
:100C74000020204661696C65642051415120202088
:100C84002000202020496E70757420436F64652015
:100C94002020002020496E707574204144436F6405
:100CA40065202000202041444D494E49535452416F
:100CB400544F5220002020416464202020202044EE
:100CC400656C6574650020202020204279205848F6
:100CD4004A2020202020002020202057454C434F2C
:100CE4004D45202020202000312E5020322E462039
:100CF400332E4120342E43202000202000202A00BF
:100D0400202020202020434845434B202020202021
:010D140000DE
:1011A3000241000002430000024500000247000024
:100E1700E542640145417039E54464024543703158
:100E2700E546640345457029E54864044547702154
:100E37007BFF7A0C7964F53C753D107FC012110F6A
:100E47007FE87E031213217F011207C812138B80DC
:100E57001D7BFF7A0C7975E4F53C753D107FC01258
:100E6700110F7FE87E031213217F031207C8E4F5F1
:100E770043F544F545F546F547F548F541F5422272
:100EE700D3E5429409E5419400400C74F62542F598
:100EF7004274FF3541F541D3E5449409E543940035
:100F0700400C74F62544F54474FF3543F543D3E5A7
:100F1700469409E5459400400C74F62546F5467459
:100F2700FF3545F545D3E5489409E5479400400C5E
:0D0F370074F62548F54874FF3547F547224C
:100F92007F011212F7120EE77BFF7A0C7986E4F5D5
:100FA2003C753D107F8012110F7FC61212F7E54289
:100FB2002430FF12134FE5442430FF12134FE5464D
:0E0FC2002430FF12134FE5482430FF02134F76
:100FD0007F011212F7120EE77BFF7A0C7997E4F586
:100FE0003C753D107F8012110F7FC61212F7E5424B
:100FF0002430FF12134FE5442430FF12134FE5460F
:0E1000002430FF12134FE5482430FF02134F37
:101167007F011212F77BFF7A0C79A8E4F53C753DF5
:10117700107F8012110F7BFF7A0C79B9E4F53C756B
:071187003D107FC002110FB3
:100003001210E27BFF7A0C79CAE4F53C753D107F50
:100013008012110F7FF47E01121321121339121370
:100023007E7FF47E01121321120E877FE87E031276
:1000330013217F021207C87BFF7A0C79DBE4F53CBE
:10004300753D107F8012110F7BFF7A0C79ECE4F57C
:100053003C753D107FC012110FE4F543F544F5459F
:10006300F546F547F548F541F54230900302012C7A
:100073007F0A7E0012132120900A7FC87E0012138C
:1000830021120F9220901C7F0A7E001213212090D0
:10009300120542E542700205417FC87E001213211A
:1000A300120F9220911C7F0A7E00121321209112BD
:1000B3000544E544700205437FC87E0012132112F4
:1000C3000F9220921C7F0A7E0012132120921205A8
:1000D30046E546700205457FC87E00121321120FC4
:1000E3009220931C7F0A7E0012132120931205484D
:1000F300E548700205477FC87E00121321120F9254
:100103002094107F0A7E00121321209406120E17EA
:1001130002003A3095030200877F0A7E0012132102
:1001230030950302008702003A2091267F0A7E0061
:1001330012132120911C7FC87E0012132120950DDC
:100143007F0A7E001213212095F302003A120A7EE1
:1001530080EB30920302036D7F0A7E00121321307D
:10016300920302036D7FC87E00121321E4F541F56B
:1001730042F543F544F545F546F547F548120FD0EA
:1001830020901C7F0A7E001213212090120542E565
:1001930042700205417FC87E00121321120FD02046
:1001A300911C7F0A7E001213212091120544E5441D
:1001B300700205437FC87E00121321120FD02092D4
:1001C3001C7F0A7E001213212092120546E5467019
:1001D3000205457FC87E00121321120FD020931C05
:1001E3007F0A7E001213212093120548E54870020E
:1001F30005477FC87E00121321120FD030940302EB
:1002030003577F0A7E00121321309403020357E53C
:100213004264044541600302032BE5446403454300
:10022300600302032BE54664024545600302032B8A
:10023300E54864014547600302032B7BFF7A0C7991
:1002430064F53C753D107FC012110F7FDC7E0512F3
:1002530013217F011212F7121167AF49EF3395E0B3
:100263004F70297BFF7A0C79FEF53C753D027F8048
:1002730012110F7BFF7A0D7901E4F53C753D027F86
:10028300C012110F7BFF7A0C79FE8034AF49EF3334
:1002930095E0FEEF64014E70327BFF7A0C79FEF538
:1002A3003C753D027F8012110F7BFF7A0C79FEE4CF
:1002B300F53C753D027FC012110F7BFF7A0D79016A
:1002C300E4F53C753D027FC812110F20941730945A
:1002D300FDE54914600904700C12041602016F1243
:1002E3000BAE02016F2090263090FDAF49EF33959E
:1002F300E0FED3EF9401EE6480948050110549AF82
:1003030049EF3395E0FEEF64024E7002F549209504
:100313000D7F0A7E0012132120950302003A7F64A9
:100323007E0012132102025D7BFF7A0C7975E4F5DE
:100333003C753D107FC012110F7FDC7E0512132127
:10034300E4F543F544F545F546F547F548F541F53C
:100353004202003A3095030201837F0A7E001213A2
:100363002130950302018302003A30930302006DAA
:100373007F0A7E0012132120931D7FC87E00121373
:10038300217F011212F77BFF7A0D7904E4F53C75A6
:100393003D107F8012110F2094697F0A7E00121393
:1003A3002120945F7F011211D8753F008F407FC7D2
:1003B3001212F7AE3FAF407C007D64120760EF245A
:1003C30030FF12134FAE3FAF407C007D64120760D5
:1003D3007E007F0ACFCDCFCECCCE120760EF243084
:1003E300FF12134FAE3FAF407C007D641207607E67
:1003F300007F0ACFCDCFCECCCE120760ED2430FFE5
:1004030012134F2095917F0A7E00121321209587A6
:0304130002003AAA
:10133900759850E4F587758920758DFD758BFDD2FB
:061349008ED2AFD2AC22EF
:0813A1008F993099FDC29922D9
:0713A9003098FDC298AF99D6
:0113B000221A
:100D2100020003E493A3F8E493A34003F68001F2E5
:100D310008DFF48029E493A3F85407240CC8C333D3
:100D4100C4540F4420C8834004F456800146F6DFA2
:100D5100E4800B010204081020408090118EE47E93
:100D6100019360BCA3FF543F30E509541FFEE49397
:100D7100A360010ECF54C025E060A840B8E493A35E
:100D8100FAE493A3F8E493A3C8C582C8CAC583CA89
:100D9100F0A3C8C582C8CAC583CADFE9DEE780BE41
:0111B300003B
:10063D00E709F608DFFA8046E709F208DFFA803E9F
:10064D0088828C83E709F0A3DFFA8032E309F6088C
:10065D00DFFA8078E309F208DFFA807088828C83F4
:10066D00E309F0A3DFFA806489828A83E0A3F608A8
:10067D00DFFA805889828A83E0A3F208DFFA804C82
:10068D0080D280FA80C680D4806980F28033801059
:10069D0080A680EA809A80A880DA80E280CA8033C2
:1006AD0089828A83ECFAE493A3C8C582C8CCC5833A
:1006BD00CCF0A3C8C582C8CCC583CCDFE9DEE7800A
:1006CD000D89828A83E493A3F608DFF9ECFAA9F089
:1006DD00EDFB2289828A83ECFAE0A3C8C582C8CCDF
:1006ED00C583CCF0A3C8C582C8CCC583CCDFEADEF8
:1006FD00E880DB89828A83E493A3F208DFF980CC5A
:10070D0088F0EF60010E4E60C388F0ED2402B40452
:10071D000050B9F582EB2402B4040050AF232345F9
:06072D00822390068D738B
:10073300BB010CE58229F582E5833AF583E022507B
:1007430006E92582F8E622BBFE06E92582F8E222C5
:0D075300E58229F582E5833AF583E49322DF
:10076000BC000BBE0029EF8DF084FFADF022E4CC7D
:10077000F875F008EF2FFFEE33FEEC33FCEE9DEC46
:10078000984005FCEE9DFE0FD5F0E9E4CEFD22ED8C
:10079000F8F5F0EE8420D21CFEADF075F008EF2FD6
:1007A000FFED33FD4007985006D5F0F222C398FDC7
:0507B0000FD5F0EA2264
:1007B500E8600FECC313FCED13FDEE13FEEF13FF22
:0307C500D8F12246
:00000001FF
